{
  "contractName": "AuctionManager",
  "abi": [
    {
      "inputs": [],
      "name": "aId",
      "outputs": [
        {
          "internalType": "uint256",
          "name": "",
          "type": "uint256"
        }
      ],
      "stateMutability": "view",
      "type": "function",
      "constant": true
    },
    {
      "inputs": [
        {
          "internalType": "uint256",
          "name": "",
          "type": "uint256"
        }
      ],
      "name": "auctionAnalytics",
      "outputs": [
        {
          "internalType": "uint256",
          "name": "auctionId",
          "type": "uint256"
        },
        {
          "internalType": "uint256",
          "name": "auctionBidId",
          "type": "uint256"
        },
        {
          "internalType": "uint256",
          "name": "latestBid",
          "type": "uint256"
        },
        {
          "internalType": "uint256",
          "name": "lowestBid",
          "type": "uint256"
        },
        {
          "internalType": "uint256",
          "name": "highestBid",
          "type": "uint256"
        }
      ],
      "stateMutability": "view",
      "type": "function",
      "constant": true
    },
    {
      "inputs": [
        {
          "internalType": "uint256",
          "name": "",
          "type": "uint256"
        }
      ],
      "name": "auctions",
      "outputs": [
        {
          "internalType": "uint256",
          "name": "auctionId",
          "type": "uint256"
        },
        {
          "internalType": "uint256",
          "name": "userId",
          "type": "uint256"
        },
        {
          "internalType": "string",
          "name": "name",
          "type": "string"
        },
        {
          "internalType": "string",
          "name": "description",
          "type": "string"
        },
        {
          "internalType": "uint256",
          "name": "msp",
          "type": "uint256"
        },
        {
          "internalType": "uint256",
          "name": "auctionBidId",
          "type": "uint256"
        }
      ],
      "stateMutability": "view",
      "type": "function",
      "constant": true
    },
    {
      "inputs": [
        {
          "internalType": "uint256",
          "name": "",
          "type": "uint256"
        },
        {
          "internalType": "uint256",
          "name": "",
          "type": "uint256"
        }
      ],
      "name": "bids",
      "outputs": [
        {
          "internalType": "uint256",
          "name": "userId",
          "type": "uint256"
        },
        {
          "internalType": "uint256",
          "name": "bidPrice",
          "type": "uint256"
        }
      ],
      "stateMutability": "view",
      "type": "function",
      "constant": true
    },
    {
      "inputs": [],
      "name": "uId",
      "outputs": [
        {
          "internalType": "uint256",
          "name": "",
          "type": "uint256"
        }
      ],
      "stateMutability": "view",
      "type": "function",
      "constant": true
    },
    {
      "inputs": [
        {
          "internalType": "uint256",
          "name": "",
          "type": "uint256"
        }
      ],
      "name": "users",
      "outputs": [
        {
          "internalType": "uint256",
          "name": "userId",
          "type": "uint256"
        },
        {
          "internalType": "string",
          "name": "name",
          "type": "string"
        },
        {
          "internalType": "address",
          "name": "publicAddress",
          "type": "address"
        }
      ],
      "stateMutability": "view",
      "type": "function",
      "constant": true
    },
    {
      "inputs": [
        {
          "internalType": "address",
          "name": "_publicAddress",
          "type": "address"
        }
      ],
      "name": "isRegistered",
      "outputs": [
        {
          "internalType": "uint256[2]",
          "name": "",
          "type": "uint256[2]"
        }
      ],
      "stateMutability": "view",
      "type": "function",
      "constant": true
    },
    {
      "inputs": [
        {
          "internalType": "string",
          "name": "name",
          "type": "string"
        }
      ],
      "name": "ReturnName",
      "outputs": [
        {
          "internalType": "string",
          "name": "",
          "type": "string"
        }
      ],
      "stateMutability": "pure",
      "type": "function",
      "constant": true
    },
    {
      "inputs": [
        {
          "internalType": "string",
          "name": "_name",
          "type": "string"
        }
      ],
      "name": "createUser",
      "outputs": [
        {
          "internalType": "uint256",
          "name": "",
          "type": "uint256"
        }
      ],
      "stateMutability": "nonpayable",
      "type": "function"
    },
    {
      "inputs": [
        {
          "internalType": "string",
          "name": "_name",
          "type": "string"
        },
        {
          "internalType": "string",
          "name": "_description",
          "type": "string"
        },
        {
          "internalType": "uint256",
          "name": "_msp",
          "type": "uint256"
        }
      ],
      "name": "createAuction",
      "outputs": [],
      "stateMutability": "nonpayable",
      "type": "function"
    },
    {
      "inputs": [
        {
          "internalType": "uint256",
          "name": "_aId",
          "type": "uint256"
        },
        {
          "internalType": "uint256",
          "name": "_bidPrice",
          "type": "uint256"
        }
      ],
      "name": "createBid",
      "outputs": [],
      "stateMutability": "nonpayable",
      "type": "function"
    },
    {
      "inputs": [],
      "name": "showAuctions",
      "outputs": [
        {
          "components": [
            {
              "internalType": "uint256",
              "name": "auctionId",
              "type": "uint256"
            },
            {
              "internalType": "uint256",
              "name": "userId",
              "type": "uint256"
            },
            {
              "internalType": "string",
              "name": "name",
              "type": "string"
            },
            {
              "internalType": "string",
              "name": "description",
              "type": "string"
            },
            {
              "internalType": "uint256",
              "name": "msp",
              "type": "uint256"
            },
            {
              "internalType": "uint256",
              "name": "auctionBidId",
              "type": "uint256"
            }
          ],
          "internalType": "struct AuctionManager.Auction[]",
          "name": "",
          "type": "tuple[]"
        }
      ],
      "stateMutability": "view",
      "type": "function",
      "constant": true
    }
  ],
  "bytecode": "0x608060405260008055600060015534801561001957600080fd5b50611a40806100296000396000f3fe608060405234801561001057600080fd5b50600436106100b45760003560e01c8063a114e7c811610071578063a114e7c8146101e5578063b7751c7114610203578063c3c5a5471461021f578063cc1009461461024f578063dbd308651461026d578063ddf207061461028b576100b4565b8063365b98b2146100b957806336c4d8fb146100eb578063507ffba51461011b578063571a26a01461014b578063769f06ef146101805780637b3c4baa146101b4575b600080fd5b6100d360048036038101906100ce9190610da0565b6102a7565b6040516100e293929190610eb6565b60405180910390f35b61010560048036038101906101009190611029565b610379565b6040516101129190611072565b60405180910390f35b61013560048036038101906101309190611029565b610383565b6040516101429190611094565b60405180910390f35b61016560048036038101906101609190610da0565b6104b9565b604051610177969594939291906110af565b60405180910390f35b61019a60048036038101906101959190610da0565b610615565b6040516101ab95949392919061111e565b60405180910390f35b6101ce60048036038101906101c99190611171565b61064b565b6040516101dc9291906111b1565b60405180910390f35b6101ed61068c565b6040516101fa9190611094565b60405180910390f35b61021d60048036038101906102189190611171565b610692565b005b61023960048036038101906102349190611206565b6107c5565b60405161024691906112de565b60405180910390f35b6102576108c3565b6040516102649190611094565b60405180910390f35b6102756108c9565b6040516102829190611495565b60405180910390f35b6102a560048036038101906102a091906114b7565b610a74565b005b60036020528060005260406000206000915090508060000154908060010180546102d090611571565b80601f01602080910402602001604051908101604052809291908181526020018280546102fc90611571565b80156103495780601f1061031e57610100808354040283529160200191610349565b820191906000526020600020905b81548152906001019060200180831161032c57829003601f168201915b5050505050908060020160009054906101000a900473ffffffffffffffffffffffffffffffffffffffff16905083565b6060819050919050565b60008061038f336107c5565b6000600281106103a2576103a16115a2565b5b6020020151146103e7576040517f08c379a00000000000000000000000000000000000000000000000000000000081526004016103de9061161d565b60405180910390fd5b604051806060016040528060005481526020018381526020013373ffffffffffffffffffffffffffffffffffffffff16815250600360008054815260200190815260200160002060008201518160000155602082015181600101908161044d91906117e9565b5060408201518160020160006101000a81548173ffffffffffffffffffffffffffffffffffffffff021916908373ffffffffffffffffffffffffffffffffffffffff1602179055509050506000808154809291906104aa906118ea565b91905055506000549050919050565b600281815481106104c957600080fd5b90600052602060002090600602016000915090508060000154908060010154908060020180546104f890611571565b80601f016020809104026020016040519081016040528092919081815260200182805461052490611571565b80156105715780601f1061054657610100808354040283529160200191610571565b820191906000526020600020905b81548152906001019060200180831161055457829003601f168201915b50505050509080600301805461058690611571565b80601f01602080910402602001604051908101604052809291908181526020018280546105b290611571565b80156105ff5780601f106105d4576101008083540402835291602001916105ff565b820191906000526020600020905b8154815290600101906020018083116105e257829003601f168201915b5050505050908060040154908060050154905086565b60056020528060005260406000206000915090508060000154908060010154908060020154908060030154908060040154905085565b6004602052816000526040600020818154811061066757600080fd5b9060005260206000209060020201600091509150508060000154908060010154905082565b60015481565b600161069d336107c5565b6000600281106106b0576106af6115a2565b5b6020020151146106f5576040517f08c379a00000000000000000000000000000000000000000000000000000000081526004016106ec9061197e565b60405180910390fd5b60046000838152602001908152602001600020604051806040016040528061071c336107c5565b60016002811061072f5761072e6115a2565b5b6020020151815260200183815250908060018154018082558091505060019003906000526020600020906002020160009091909190915060008201518160000155602082015181600101555050600282815481106107905761078f6115a2565b5b906000526020600020906006020160050160008154809291906107b2906118ea565b91905055506107c18282610c61565b5050565b6107cd610d34565b60006040518060400160405280600081526020016000815250905060005b6000548110156108b8576003600082815260200190815260200160002060020160009054906101000a900473ffffffffffffffffffffffffffffffffffffffff1673ffffffffffffffffffffffffffffffffffffffff168473ffffffffffffffffffffffffffffffffffffffff16036108a557600182600060028110610874576108736115a2565b5b6020020181815250508082600160028110610892576108916115a2565b5b60200201818152505081925050506108be565b80806108b0906118ea565b9150506107eb565b50809150505b919050565b60005481565b60606002805480602002602001604051908101604052809291908181526020016000905b82821015610a6b57838290600052602060002090600602016040518060c0016040529081600082015481526020016001820154815260200160028201805461093490611571565b80601f016020809104026020016040519081016040528092919081815260200182805461096090611571565b80156109ad5780601f10610982576101008083540402835291602001916109ad565b820191906000526020600020905b81548152906001019060200180831161099057829003601f168201915b505050505081526020016003820180546109c690611571565b80601f01602080910402602001604051908101604052809291908181526020018280546109f290611571565b8015610a3f5780601f10610a1457610100808354040283529160200191610a3f565b820191906000526020600020905b815481529060010190602001808311610a2257829003601f168201915b5050505050815260200160048201548152602001600582015481525050815260200190600101906108ed565b50505050905090565b6001610a7f336107c5565b600060028110610a9257610a916115a2565b5b602002015114610ad7576040517f08c379a0000000000000000000000000000000000000000000000000000000008152600401610ace906119ea565b60405180910390fd5b60007fffffffffffffffffffffffffffffffffffffffffffffffffffffffffffffffff905060026040518060c001604052806001548152602001610b1a336107c5565b600160028110610b2d57610b2c6115a2565b5b602002015181526020018681526020018581526020018481526020016000815250908060018154018082558091505060019003906000526020600020906006020160009091909190915060008201518160000155602082015181600101556040820151816002019081610ba091906117e9565b506060820151816003019081610bb691906117e9565b506080820151816004015560a0820151816005015550506040518060a00160405280600154815260200160008152602001600081526020018281526020016000815250600560006001548152602001908152602001600020600082015181600001556020820151816001015560408201518160020155606082015181600301556080820151816004015590505060016000815480929190610c56906118ea565b919050555050505050565b80600560008481526020019081526020016000206002018190555060028281548110610c9057610c8f6115a2565b5b90600052602060002090600602016005015460056000848152602001908152602001600020600101819055506005600083815260200190815260200160002060030154811015610cf6578060056000848152602001908152602001600020600301819055505b6005600083815260200190815260200160002060040154811115610d30578060056000848152602001908152602001600020600401819055505b5050565b6040518060400160405280600290602082028036833780820191505090505090565b6000604051905090565b600080fd5b600080fd5b6000819050919050565b610d7d81610d6a565b8114610d8857600080fd5b50565b600081359050610d9a81610d74565b92915050565b600060208284031215610db657610db5610d60565b5b6000610dc484828501610d8b565b91505092915050565b610dd681610d6a565b82525050565b600081519050919050565b600082825260208201905092915050565b60005b83811015610e16578082015181840152602081019050610dfb565b83811115610e25576000848401525b50505050565b6000601f19601f8301169050919050565b6000610e4782610ddc565b610e518185610de7565b9350610e61818560208601610df8565b610e6a81610e2b565b840191505092915050565b600073ffffffffffffffffffffffffffffffffffffffff82169050919050565b6000610ea082610e75565b9050919050565b610eb081610e95565b82525050565b6000606082019050610ecb6000830186610dcd565b8181036020830152610edd8185610e3c565b9050610eec6040830184610ea7565b949350505050565b600080fd5b600080fd5b7f4e487b7100000000000000000000000000000000000000000000000000000000600052604160045260246000fd5b610f3682610e2b565b810181811067ffffffffffffffff82111715610f5557610f54610efe565b5b80604052505050565b6000610f68610d56565b9050610f748282610f2d565b919050565b600067ffffffffffffffff821115610f9457610f93610efe565b5b610f9d82610e2b565b9050602081019050919050565b82818337600083830152505050565b6000610fcc610fc784610f79565b610f5e565b905082815260208101848484011115610fe857610fe7610ef9565b5b610ff3848285610faa565b509392505050565b600082601f8301126110105761100f610ef4565b5b8135611020848260208601610fb9565b91505092915050565b60006020828403121561103f5761103e610d60565b5b600082013567ffffffffffffffff81111561105d5761105c610d65565b5b61106984828501610ffb565b91505092915050565b6000602082019050818103600083015261108c8184610e3c565b905092915050565b60006020820190506110a96000830184610dcd565b92915050565b600060c0820190506110c46000830189610dcd565b6110d16020830188610dcd565b81810360408301526110e38187610e3c565b905081810360608301526110f78186610e3c565b90506111066080830185610dcd565b61111360a0830184610dcd565b979650505050505050565b600060a0820190506111336000830188610dcd565b6111406020830187610dcd565b61114d6040830186610dcd565b61115a6060830185610dcd565b6111676080830184610dcd565b9695505050505050565b6000806040838503121561118857611187610d60565b5b600061119685828601610d8b565b92505060206111a785828601610d8b565b9150509250929050565b60006040820190506111c66000830185610dcd565b6111d36020830184610dcd565b9392505050565b6111e381610e95565b81146111ee57600080fd5b50565b600081359050611200816111da565b92915050565b60006020828403121561121c5761121b610d60565b5b600061122a848285016111f1565b91505092915050565b600060029050919050565b600081905092915050565b6000819050919050565b61125c81610d6a565b82525050565b600061126e8383611253565b60208301905092915050565b6000602082019050919050565b61129081611233565b61129a818461123e565b92506112a582611249565b8060005b838110156112d65781516112bd8782611262565b96506112c88361127a565b9250506001810190506112a9565b505050505050565b60006040820190506112f36000830184611287565b92915050565b600081519050919050565b600082825260208201905092915050565b6000819050602082019050919050565b600082825260208201905092915050565b600061134182610ddc565b61134b8185611325565b935061135b818560208601610df8565b61136481610e2b565b840191505092915050565b600060c0830160008301516113876000860182611253565b50602083015161139a6020860182611253565b50604083015184820360408601526113b28282611336565b915050606083015184820360608601526113cc8282611336565b91505060808301516113e16080860182611253565b5060a08301516113f460a0860182611253565b508091505092915050565b600061140b838361136f565b905092915050565b6000602082019050919050565b600061142b826112f9565b6114358185611304565b93508360208202850161144785611315565b8060005b85811015611483578484038952815161146485826113ff565b945061146f83611413565b925060208a0199505060018101905061144b565b50829750879550505050505092915050565b600060208201905081810360008301526114af8184611420565b905092915050565b6000806000606084860312156114d0576114cf610d60565b5b600084013567ffffffffffffffff8111156114ee576114ed610d65565b5b6114fa86828701610ffb565b935050602084013567ffffffffffffffff81111561151b5761151a610d65565b5b61152786828701610ffb565b925050604061153886828701610d8b565b9150509250925092565b7f4e487b7100000000000000000000000000000000000000000000000000000000600052602260045260246000fd5b6000600282049050600182168061158957607f821691505b60208210810361159c5761159b611542565b5b50919050565b7f4e487b7100000000000000000000000000000000000000000000000000000000600052603260045260246000fd5b7f5573657220616c72656164792072656769737465726564210000000000000000600082015250565b6000611607601883610de7565b9150611612826115d1565b602082019050919050565b60006020820190508181036000830152611636816115fa565b9050919050565b60008190508160005260206000209050919050565b60006020601f8301049050919050565b600082821b905092915050565b60006008830261169f7fffffffffffffffffffffffffffffffffffffffffffffffffffffffffffffffff82611662565b6116a98683611662565b95508019841693508086168417925050509392505050565b6000819050919050565b60006116e66116e16116dc84610d6a565b6116c1565b610d6a565b9050919050565b6000819050919050565b611700836116cb565b61171461170c826116ed565b84845461166f565b825550505050565b600090565b61172961171c565b6117348184846116f7565b505050565b5b818110156117585761174d600082611721565b60018101905061173a565b5050565b601f82111561179d5761176e8161163d565b61177784611652565b81016020851015611786578190505b61179a61179285611652565b830182611739565b50505b505050565b600082821c905092915050565b60006117c0600019846008026117a2565b1980831691505092915050565b60006117d983836117af565b9150826002028217905092915050565b6117f282610ddc565b67ffffffffffffffff81111561180b5761180a610efe565b5b6118158254611571565b61182082828561175c565b600060209050601f8311600181146118535760008415611841578287015190505b61184b85826117cd565b8655506118b3565b601f1984166118618661163d565b60005b8281101561188957848901518255600182019150602085019450602081019050611864565b868310156118a657848901516118a2601f8916826117af565b8355505b6001600288020188555050505b505050505050565b7f4e487b7100000000000000000000000000000000000000000000000000000000600052601160045260246000fd5b60006118f582610d6a565b91507fffffffffffffffffffffffffffffffffffffffffffffffffffffffffffffffff8203611927576119266118bb565b5b600182019050919050565b7f55736572206e6f7420706f646121000000000000000000000000000000000000600082015250565b6000611968600e83610de7565b915061197382611932565b602082019050919050565b600060208201905081810360008301526119978161195b565b9050919050565b7f55736572206e6f7420706f646121210000000000000000000000000000000000600082015250565b60006119d4600f83610de7565b91506119df8261199e565b602082019050919050565b60006020820190508181036000830152611a03816119c7565b905091905056fea26469706673582212208dbbc5a9e299a3c06de50f0d061ff134f1739ce94495ecf29ddf35fe0996c84564736f6c634300080f0033",
  "immutableReferences": {},
  "source": "// SPDX-License-Identifier: UNLICENSED\npragma solidity >=0.8.0;\n\ncontract AuctionManager {\n  uint public uId = 0;\n  uint public aId = 0;\n\n  // Structure to store user information\n  struct User {\n    uint userId;\n    string name;\n    address publicAddress;\n  }\n\n  // Structure to store bid information\n  struct Bid {\n    uint userId;\n    uint bidPrice;\n  }\n\n  // Structure to store auction information\n  struct Auction {\n    uint auctionId;\n    uint userId;\n    string name;\n    string description;\n    uint msp;\n    uint auctionBidId;\n  }\n\n  // Structure to store real time analytics of each auction\n  struct AuctionAnalytics {\n    uint auctionId;\n    uint auctionBidId;\n    uint latestBid;\n    uint lowestBid;\n    uint highestBid;\n  }\n\n  // List of all auctions\n  Auction[] public auctions;\n\n  // Mapping for storing user info, bids and auction analytics\n  mapping (uint => User) public users;\n  mapping (uint => Bid[]) public bids;\n  mapping (uint => AuctionAnalytics) public auctionAnalytics;\n\n  // Public function to check the registration of users (public address)\n  function isRegistered(address _publicAddress) public view returns (uint256[2] memory) {\n    uint256[2] memory result = [uint256(0), uint256(0)];\n    for(uint i = 0; i < uId; i++) {\n      if(_publicAddress == users[i].publicAddress) {\n        result[0] = 1;\n        result[1] = i;\n        return result;\n      }\n    }\n    return result;\n  }\n\n  function ReturnName(string memory name) public pure returns (string memory){\n    return name;\n  }\n\n  // Creating new users\n  function createUser(string memory _name) public returns(uint256){\n    require((isRegistered(msg.sender))[0] == 0, \"User already registered!\");\n    users[uId] = User(uId, _name, msg.sender);\n    uId++;\n    return uId;\n  }\n\n  // Creating new auctions\n  function createAuction(string memory _name, string memory _description, uint _msp) public {\n    require((isRegistered(msg.sender))[0] == 1, \"User not poda!!\");\n    uint MAX_UINT = 2 ** 256 - 1;\n    auctions.push(Auction(aId, isRegistered(msg.sender)[1], _name, _description, _msp, 0));\n    auctionAnalytics[aId] = AuctionAnalytics(aId, 0, 0, MAX_UINT, 0);\n    aId++;\n  }\n\n  // Private function to update auction analytics after the new bids\n  function updateAucionAnalytics(uint _aId, uint _latestBid) private {\n    auctionAnalytics[_aId].latestBid = _latestBid;\n    auctionAnalytics[_aId].auctionBidId = auctions[_aId].auctionBidId;\n    if(_latestBid < auctionAnalytics[_aId].lowestBid) {\n      auctionAnalytics[_aId].lowestBid = _latestBid;\n    }\n    if(_latestBid > auctionAnalytics[_aId].highestBid) {\n      auctionAnalytics[_aId].highestBid = _latestBid;\n    }\n  }\n\n  // Creating new bids\n  function createBid(uint _aId, uint _bidPrice) public {\n    require((isRegistered(msg.sender))[0] == 1, \"User not poda!\");\n    bids[_aId].push(Bid((isRegistered(msg.sender))[1], _bidPrice));\n    auctions[_aId].auctionBidId++;\n    updateAucionAnalytics(_aId, _bidPrice);\n  }\n\n  // Return list of all auctions\n  function showAuctions() public view returns (Auction[] memory) {\n    return auctions;\n  }\n}",
  "sourcePath": "/home/hades/mini/contracts/AuctionManager.sol",
  "compiler": {
    "name": "solc",
    "version": "0.8.15+commit.e14f2714.Emscripten.clang"
  },
  "schemaVersion": "3.4.7",
  "updatedAt": "2022-06-20T14:43:34.377Z",
  "networkType": "ethereum",
  "devdoc": {
    "kind": "dev",
    "methods": {},
    "version": 1
  },
  "userdoc": {
    "kind": "user",
    "methods": {},
    "version": 1
  }
}